{
  "_format": "hh-sol-artifact-1",
  "contractName": "ToDoList",
  "sourceName": "contracts/ToDoList.sol",
  "abi": [
    {
      "inputs": [],
      "stateMutability": "nonpayable",
      "type": "constructor"
    },
    {
      "anonymous": false,
      "inputs": [
        {
          "indexed": true,
          "internalType": "address",
          "name": "account",
          "type": "address"
        },
        {
          "indexed": true,
          "internalType": "uint256",
          "name": "userId",
          "type": "uint256"
        },
        {
          "indexed": false,
          "internalType": "string",
          "name": "message",
          "type": "string"
        },
        {
          "indexed": false,
          "internalType": "bool",
          "name": "completed",
          "type": "bool"
        },
        {
          "indexed": false,
          "internalType": "uint256",
          "name": "creationTimeStamp",
          "type": "uint256"
        },
        {
          "indexed": false,
          "internalType": "uint256",
          "name": "completionTimeStamp",
          "type": "uint256"
        }
      ],
      "name": "ToDoEvent",
      "type": "event"
    },
    {
      "inputs": [],
      "name": "_idUser",
      "outputs": [
        {
          "internalType": "uint256",
          "name": "",
          "type": "uint256"
        }
      ],
      "stateMutability": "view",
      "type": "function"
    },
    {
      "inputs": [
        {
          "internalType": "string",
          "name": "_message",
          "type": "string"
        }
      ],
      "name": "createList",
      "outputs": [],
      "stateMutability": "nonpayable",
      "type": "function"
    },
    {
      "inputs": [
        {
          "internalType": "uint256",
          "name": "",
          "type": "uint256"
        }
      ],
      "name": "creators",
      "outputs": [
        {
          "internalType": "address",
          "name": "",
          "type": "address"
        }
      ],
      "stateMutability": "view",
      "type": "function"
    },
    {
      "inputs": [],
      "name": "getAddresses",
      "outputs": [
        {
          "internalType": "address[]",
          "name": "",
          "type": "address[]"
        }
      ],
      "stateMutability": "view",
      "type": "function"
    },
    {
      "inputs": [
        {
          "internalType": "address",
          "name": "_address",
          "type": "address"
        }
      ],
      "name": "getCreatorData",
      "outputs": [
        {
          "internalType": "address",
          "name": "",
          "type": "address"
        },
        {
          "internalType": "uint256",
          "name": "",
          "type": "uint256"
        },
        {
          "internalType": "string",
          "name": "",
          "type": "string"
        },
        {
          "internalType": "bool",
          "name": "",
          "type": "bool"
        },
        {
          "internalType": "uint256",
          "name": "",
          "type": "uint256"
        },
        {
          "internalType": "uint256",
          "name": "",
          "type": "uint256"
        }
      ],
      "stateMutability": "view",
      "type": "function"
    },
    {
      "inputs": [],
      "name": "getMessage",
      "outputs": [
        {
          "internalType": "string[]",
          "name": "",
          "type": "string[]"
        }
      ],
      "stateMutability": "view",
      "type": "function"
    },
    {
      "inputs": [
        {
          "internalType": "uint256",
          "name": "",
          "type": "uint256"
        }
      ],
      "name": "message",
      "outputs": [
        {
          "internalType": "string",
          "name": "",
          "type": "string"
        }
      ],
      "stateMutability": "view",
      "type": "function"
    },
    {
      "inputs": [
        {
          "internalType": "uint256",
          "name": "",
          "type": "uint256"
        }
      ],
      "name": "messageId",
      "outputs": [
        {
          "internalType": "uint256",
          "name": "",
          "type": "uint256"
        }
      ],
      "stateMutability": "view",
      "type": "function"
    },
    {
      "inputs": [],
      "name": "ownerOfContract",
      "outputs": [
        {
          "internalType": "address",
          "name": "",
          "type": "address"
        }
      ],
      "stateMutability": "view",
      "type": "function"
    },
    {
      "inputs": [
        {
          "internalType": "address",
          "name": "",
          "type": "address"
        }
      ],
      "name": "toDoListApps",
      "outputs": [
        {
          "internalType": "address",
          "name": "account",
          "type": "address"
        },
        {
          "internalType": "uint256",
          "name": "userId",
          "type": "uint256"
        },
        {
          "internalType": "string",
          "name": "message",
          "type": "string"
        },
        {
          "internalType": "bool",
          "name": "completed",
          "type": "bool"
        },
        {
          "internalType": "uint256",
          "name": "creationTimeStamp",
          "type": "uint256"
        },
        {
          "internalType": "uint256",
          "name": "completionTimeStamp",
          "type": "uint256"
        }
      ],
      "stateMutability": "view",
      "type": "function"
    },
    {
      "inputs": [
        {
          "internalType": "address",
          "name": "_creator",
          "type": "address"
        }
      ],
      "name": "toggle",
      "outputs": [],
      "stateMutability": "nonpayable",
      "type": "function"
    }
  ],
  "bytecode": "0x608060405234801561001057600080fd5b5033600160006101000a81548173ffffffffffffffffffffffffffffffffffffffff021916908373ffffffffffffffffffffffffffffffffffffffff1602179055506111e8806100616000396000f3fe608060405234801561001057600080fd5b50600436106100a95760003560e01c806394432cc51161007157806394432cc514610182578063a39fac12146101a0578063b8dcc68f146101be578063cd53d08e146101da578063ce6d41de1461020a578063d1e8507b14610228576100a9565b80630d64e697146100ae57806321e47d46146100e3578063468229ae14610113578063588f9acc1461013157806374310d081461014d575b600080fd5b6100c860048036038101906100c39190610b6d565b610258565b6040516100da96959493929190610c76565b60405180910390f35b6100fd60048036038101906100f89190610d0a565b610404565b60405161010a9190610d37565b60405180910390f35b61011b610428565b6040516101289190610d52565b60405180910390f35b61014b60048036038101906101469190610b6d565b61044e565b005b61016760048036038101906101629190610b6d565b6104e4565b60405161017996959493929190610c76565b60405180910390f35b61018a6105d5565b6040516101979190610d37565b60405180910390f35b6101a86105db565b6040516101b59190610e2b565b60405180910390f35b6101d860048036038101906101d39190610eb2565b610669565b005b6101f460048036038101906101ef9190610d0a565b610885565b6040516102019190610d52565b60405180910390f35b6102126108c4565b60405161021f919061100b565b60405180910390f35b610242600480360381019061023d9190610d0a565b61099d565b60405161024f919061102d565b60405180910390f35b6000806060600080600080600560008973ffffffffffffffffffffffffffffffffffffffff1673ffffffffffffffffffffffffffffffffffffffff1681526020019081526020016000206040518060c00160405290816000820160009054906101000a900473ffffffffffffffffffffffffffffffffffffffff1673ffffffffffffffffffffffffffffffffffffffff1673ffffffffffffffffffffffffffffffffffffffff1681526020016001820154815260200160028201805461031d9061107e565b80601f01602080910402602001604051908101604052809291908181526020018280546103499061107e565b80156103965780601f1061036b57610100808354040283529160200191610396565b820191906000526020600020905b81548152906001019060200180831161037957829003601f168201915b505050505081526020016003820160009054906101000a900460ff16151515158152602001600482015481526020016005820154815250509050806000015181602001518260400151836060015184608001518560a001519650965096509650965096505091939550919395565b6004818154811061041457600080fd5b906000526020600020016000915090505481565b600160009054906101000a900473ffffffffffffffffffffffffffffffffffffffff1681565b6000600560008373ffffffffffffffffffffffffffffffffffffffff1673ffffffffffffffffffffffffffffffffffffffff16815260200190815260200160002090508060030160009054906101000a900460ff16158160030160006101000a81548160ff0219169083151502179055508060030160009054906101000a900460ff16156104e0574281600501819055505b5050565b60056020528060005260406000206000915090508060000160009054906101000a900473ffffffffffffffffffffffffffffffffffffffff16908060010154908060020180546105339061107e565b80601f016020809104026020016040519081016040528092919081815260200182805461055f9061107e565b80156105ac5780601f10610581576101008083540402835291602001916105ac565b820191906000526020600020905b81548152906001019060200180831161058f57829003601f168201915b5050505050908060030160009054906101000a900460ff16908060040154908060050154905086565b60005481565b6060600280548060200260200160405190810160405280929190818152602001828054801561065f57602002820191906000526020600020905b8160009054906101000a900473ffffffffffffffffffffffffffffffffffffffff1673ffffffffffffffffffffffffffffffffffffffff1681526020019060010190808311610615575b5050505050905090565b610671610a49565b6000805490506000600560003373ffffffffffffffffffffffffffffffffffffffff1673ffffffffffffffffffffffffffffffffffffffff1681526020019081526020016000209050338160000160006101000a81548173ffffffffffffffffffffffffffffffffffffffff021916908373ffffffffffffffffffffffffffffffffffffffff1602179055508383826002019190610710929190610a62565b5060008160030160006101000a81548160ff0219169083151502179055508181600101819055504281600401819055504281600501819055506002339080600181540180825580915050600190039060005260206000200160009091909190916101000a81548173ffffffffffffffffffffffffffffffffffffffff021916908373ffffffffffffffffffffffffffffffffffffffff16021790555060038484909180600181540180825580915050600190039060005260206000200160009091929091929091929091925091906107e9929190610a62565b50600482908060018154018082558091505060019003906000526020600020016000909190919091505580600101543373ffffffffffffffffffffffffffffffffffffffff167fc362415636c3967594e399912495fe7ae7ad721c0e7a40514d788f089c1d01a386868560030160009054906101000a900460ff1642426040516108779594939291906110ec565b60405180910390a350505050565b6002818154811061089557600080fd5b906000526020600020016000915054906101000a900473ffffffffffffffffffffffffffffffffffffffff1681565b60606003805480602002602001604051908101604052809291908181526020016000905b828210156109945783829060005260206000200180546109079061107e565b80601f01602080910402602001604051908101604052809291908181526020018280546109339061107e565b80156109805780601f1061095557610100808354040283529160200191610980565b820191906000526020600020905b81548152906001019060200180831161096357829003601f168201915b5050505050815260200190600101906108e8565b50505050905090565b600381815481106109ad57600080fd5b9060005260206000200160009150905080546109c89061107e565b80601f01602080910402602001604051908101604052809291908181526020018280546109f49061107e565b8015610a415780601f10610a1657610100808354040283529160200191610a41565b820191906000526020600020905b815481529060010190602001808311610a2457829003601f168201915b505050505081565b600080815480929190610a5b90611169565b9190505550565b828054610a6e9061107e565b90600052602060002090601f016020900481019282610a905760008555610ad7565b82601f10610aa957803560ff1916838001178555610ad7565b82800160010185558215610ad7579182015b82811115610ad6578235825591602001919060010190610abb565b5b509050610ae49190610ae8565b5090565b5b80821115610b01576000816000905550600101610ae9565b5090565b600080fd5b600080fd5b600073ffffffffffffffffffffffffffffffffffffffff82169050919050565b6000610b3a82610b0f565b9050919050565b610b4a81610b2f565b8114610b5557600080fd5b50565b600081359050610b6781610b41565b92915050565b600060208284031215610b8357610b82610b05565b5b6000610b9184828501610b58565b91505092915050565b610ba381610b2f565b82525050565b6000819050919050565b610bbc81610ba9565b82525050565b600081519050919050565b600082825260208201905092915050565b60005b83811015610bfc578082015181840152602081019050610be1565b83811115610c0b576000848401525b50505050565b6000601f19601f8301169050919050565b6000610c2d82610bc2565b610c378185610bcd565b9350610c47818560208601610bde565b610c5081610c11565b840191505092915050565b60008115159050919050565b610c7081610c5b565b82525050565b600060c082019050610c8b6000830189610b9a565b610c986020830188610bb3565b8181036040830152610caa8187610c22565b9050610cb96060830186610c67565b610cc66080830185610bb3565b610cd360a0830184610bb3565b979650505050505050565b610ce781610ba9565b8114610cf257600080fd5b50565b600081359050610d0481610cde565b92915050565b600060208284031215610d2057610d1f610b05565b5b6000610d2e84828501610cf5565b91505092915050565b6000602082019050610d4c6000830184610bb3565b92915050565b6000602082019050610d676000830184610b9a565b92915050565b600081519050919050565b600082825260208201905092915050565b6000819050602082019050919050565b610da281610b2f565b82525050565b6000610db48383610d99565b60208301905092915050565b6000602082019050919050565b6000610dd882610d6d565b610de28185610d78565b9350610ded83610d89565b8060005b83811015610e1e578151610e058882610da8565b9750610e1083610dc0565b925050600181019050610df1565b5085935050505092915050565b60006020820190508181036000830152610e458184610dcd565b905092915050565b600080fd5b600080fd5b600080fd5b60008083601f840112610e7257610e71610e4d565b5b8235905067ffffffffffffffff811115610e8f57610e8e610e52565b5b602083019150836001820283011115610eab57610eaa610e57565b5b9250929050565b60008060208385031215610ec957610ec8610b05565b5b600083013567ffffffffffffffff811115610ee757610ee6610b0a565b5b610ef385828601610e5c565b92509250509250929050565b600081519050919050565b600082825260208201905092915050565b6000819050602082019050919050565b600082825260208201905092915050565b6000610f4782610bc2565b610f518185610f2b565b9350610f61818560208601610bde565b610f6a81610c11565b840191505092915050565b6000610f818383610f3c565b905092915050565b6000602082019050919050565b6000610fa182610eff565b610fab8185610f0a565b935083602082028501610fbd85610f1b565b8060005b85811015610ff95784840389528151610fda8582610f75565b9450610fe583610f89565b925060208a01995050600181019050610fc1565b50829750879550505050505092915050565b600060208201905081810360008301526110258184610f96565b905092915050565b600060208201905081810360008301526110478184610c22565b905092915050565b7f4e487b7100000000000000000000000000000000000000000000000000000000600052602260045260246000fd5b6000600282049050600182168061109657607f821691505b602082108114156110aa576110a961104f565b5b50919050565b82818337600083830152505050565b60006110cb8385610bcd565b93506110d88385846110b0565b6110e183610c11565b840190509392505050565b600060808201905081810360008301526111078187896110bf565b90506111166020830186610c67565b6111236040830185610bb3565b6111306060830184610bb3565b9695505050505050565b7f4e487b7100000000000000000000000000000000000000000000000000000000600052601160045260246000fd5b600061117482610ba9565b91507fffffffffffffffffffffffffffffffffffffffffffffffffffffffffffffffff8214156111a7576111a661113a565b5b60018201905091905056fea2646970667358221220eca60e11d644ec3468dff2607b9974fecdc9224e617bd88f98f1e9991391f47064736f6c63430008090033",
  "linkReferences": {},
  "deployedLinkReferences": {}
}