{
  "_format": "hh-sol-artifact-1",
  "contractName": "ToDoList",
  "sourceName": "contracts/ToDoList.sol",
  "abi": [
    {
      "inputs": [],
      "stateMutability": "nonpayable",
      "type": "constructor"
    },
    {
      "inputs": [
        {
          "internalType": "uint256",
          "name": "",
          "type": "uint256"
        }
      ],
      "name": "ToDoListApps",
      "outputs": [
        {
          "internalType": "address",
          "name": "account",
          "type": "address"
        },
        {
          "internalType": "uint256",
          "name": "userId",
          "type": "uint256"
        },
        {
          "internalType": "string",
          "name": "message",
          "type": "string"
        },
        {
          "internalType": "bool",
          "name": "completed",
          "type": "bool"
        },
        {
          "internalType": "uint256",
          "name": "creationTimeStamp",
          "type": "uint256"
        },
        {
          "internalType": "uint256",
          "name": "completionTimeStamp",
          "type": "uint256"
        },
        {
          "internalType": "bool",
          "name": "deleted",
          "type": "bool"
        },
        {
          "internalType": "uint256",
          "name": "deletionTimeStamp",
          "type": "uint256"
        }
      ],
      "stateMutability": "view",
      "type": "function"
    },
    {
      "inputs": [],
      "name": "_idUser",
      "outputs": [
        {
          "internalType": "uint256",
          "name": "",
          "type": "uint256"
        }
      ],
      "stateMutability": "view",
      "type": "function"
    },
    {
      "inputs": [
        {
          "internalType": "string",
          "name": "_message",
          "type": "string"
        }
      ],
      "name": "createList",
      "outputs": [],
      "stateMutability": "nonpayable",
      "type": "function"
    },
    {
      "inputs": [
        {
          "internalType": "uint256",
          "name": "",
          "type": "uint256"
        }
      ],
      "name": "creators",
      "outputs": [
        {
          "internalType": "address",
          "name": "",
          "type": "address"
        }
      ],
      "stateMutability": "view",
      "type": "function"
    },
    {
      "inputs": [
        {
          "internalType": "address",
          "name": "_creator",
          "type": "address"
        },
        {
          "internalType": "uint256",
          "name": "_index",
          "type": "uint256"
        },
        {
          "internalType": "string",
          "name": "_messsage",
          "type": "string"
        }
      ],
      "name": "editTask",
      "outputs": [],
      "stateMutability": "nonpayable",
      "type": "function"
    },
    {
      "inputs": [],
      "name": "getAddresses",
      "outputs": [
        {
          "internalType": "address[]",
          "name": "",
          "type": "address[]"
        }
      ],
      "stateMutability": "view",
      "type": "function"
    },
    {
      "inputs": [
        {
          "internalType": "address",
          "name": "_address",
          "type": "address"
        }
      ],
      "name": "getCreatorData",
      "outputs": [
        {
          "components": [
            {
              "internalType": "address",
              "name": "account",
              "type": "address"
            },
            {
              "internalType": "uint256",
              "name": "userId",
              "type": "uint256"
            },
            {
              "internalType": "string",
              "name": "message",
              "type": "string"
            },
            {
              "internalType": "bool",
              "name": "completed",
              "type": "bool"
            },
            {
              "internalType": "uint256",
              "name": "creationTimeStamp",
              "type": "uint256"
            },
            {
              "internalType": "uint256",
              "name": "completionTimeStamp",
              "type": "uint256"
            },
            {
              "internalType": "bool",
              "name": "deleted",
              "type": "bool"
            },
            {
              "internalType": "uint256",
              "name": "deletionTimeStamp",
              "type": "uint256"
            }
          ],
          "internalType": "struct ToDoList.ToDoListApp[]",
          "name": "",
          "type": "tuple[]"
        }
      ],
      "stateMutability": "view",
      "type": "function"
    },
    {
      "inputs": [],
      "name": "getMessage",
      "outputs": [
        {
          "internalType": "string[]",
          "name": "",
          "type": "string[]"
        }
      ],
      "stateMutability": "view",
      "type": "function"
    },
    {
      "inputs": [
        {
          "internalType": "uint256",
          "name": "",
          "type": "uint256"
        }
      ],
      "name": "message",
      "outputs": [
        {
          "internalType": "string",
          "name": "",
          "type": "string"
        }
      ],
      "stateMutability": "view",
      "type": "function"
    },
    {
      "inputs": [
        {
          "internalType": "uint256",
          "name": "",
          "type": "uint256"
        }
      ],
      "name": "messageId",
      "outputs": [
        {
          "internalType": "uint256",
          "name": "",
          "type": "uint256"
        }
      ],
      "stateMutability": "view",
      "type": "function"
    },
    {
      "inputs": [],
      "name": "ownerOfContract",
      "outputs": [
        {
          "internalType": "address",
          "name": "",
          "type": "address"
        }
      ],
      "stateMutability": "view",
      "type": "function"
    },
    {
      "inputs": [
        {
          "internalType": "address",
          "name": "",
          "type": "address"
        },
        {
          "internalType": "uint256",
          "name": "",
          "type": "uint256"
        }
      ],
      "name": "toDoListApps",
      "outputs": [
        {
          "internalType": "address",
          "name": "account",
          "type": "address"
        },
        {
          "internalType": "uint256",
          "name": "userId",
          "type": "uint256"
        },
        {
          "internalType": "string",
          "name": "message",
          "type": "string"
        },
        {
          "internalType": "bool",
          "name": "completed",
          "type": "bool"
        },
        {
          "internalType": "uint256",
          "name": "creationTimeStamp",
          "type": "uint256"
        },
        {
          "internalType": "uint256",
          "name": "completionTimeStamp",
          "type": "uint256"
        },
        {
          "internalType": "bool",
          "name": "deleted",
          "type": "bool"
        },
        {
          "internalType": "uint256",
          "name": "deletionTimeStamp",
          "type": "uint256"
        }
      ],
      "stateMutability": "view",
      "type": "function"
    },
    {
      "inputs": [
        {
          "internalType": "address",
          "name": "_creator",
          "type": "address"
        },
        {
          "internalType": "uint256",
          "name": "_index",
          "type": "uint256"
        }
      ],
      "name": "toggle",
      "outputs": [],
      "stateMutability": "nonpayable",
      "type": "function"
    },
    {
      "inputs": [
        {
          "internalType": "address",
          "name": "_creator",
          "type": "address"
        },
        {
          "internalType": "uint256",
          "name": "_index",
          "type": "uint256"
        }
      ],
      "name": "toggleDelete",
      "outputs": [],
      "stateMutability": "nonpayable",
      "type": "function"
    }
  ],
  "bytecode": "0x608060405234801561001057600080fd5b5033600160006101000a81548173ffffffffffffffffffffffffffffffffffffffff021916908373ffffffffffffffffffffffffffffffffffffffff160217905550611a3f806100616000396000f3fe608060405234801561001057600080fd5b50600436106100ea5760003560e01c8063b8dcc68f1161008c578063cd53d08e11610066578063cd53d08e1461026b578063ce6d41de1461029b578063d1e8507b146102b9578063e0235f2b146102e9576100ea565b8063b8dcc68f14610217578063b98de2bd14610233578063cb63048c1461024f576100ea565b8063468229ae116100c8578063468229ae1461018657806394432cc5146101a457806395c2fed8146101c2578063a39fac12146101f9576100ea565b80630d64e697146100ef57806321e47d461461011f57806331520baa1461014f575b600080fd5b61010960048036038101906101049190611130565b610305565b60405161011691906113ab565b60405180910390f35b610139600480360381019061013491906113f9565b6104ea565b6040516101469190611435565b60405180910390f35b61016960048036038101906101649190611450565b61050e565b60405161017d9897969594939291906114f8565b60405180910390f35b61018e610635565b60405161019b919061157d565b60405180910390f35b6101ac61065b565b6040516101b99190611435565b60405180910390f35b6101dc60048036038101906101d791906113f9565b610661565b6040516101f09897969594939291906114f8565b60405180910390f35b61020161077b565b60405161020e9190611647565b60405180910390f35b610231600480360381019061022c91906116ce565b610809565b005b61024d6004803603810190610248919061171b565b610abd565b005b61026960048036038101906102649190611450565b610b3b565b005b610285600480360381019061028091906113f9565b610c96565b604051610292919061157d565b60405180910390f35b6102a3610cd5565b6040516102b09190611851565b60405180910390f35b6102d360048036038101906102ce91906113f9565b610dae565b6040516102e09190611873565b60405180910390f35b61030360048036038101906102fe9190611450565b610e5a565b005b6060600660008373ffffffffffffffffffffffffffffffffffffffff1673ffffffffffffffffffffffffffffffffffffffff168152602001908152602001600020805480602002602001604051908101604052809291908181526020016000905b828210156104df5783829060005260206000209060080201604051806101000160405290816000820160009054906101000a900473ffffffffffffffffffffffffffffffffffffffff1673ffffffffffffffffffffffffffffffffffffffff1673ffffffffffffffffffffffffffffffffffffffff168152602001600182015481526020016002820180546103fa906118c4565b80601f0160208091040260200160405190810160405280929190818152602001828054610426906118c4565b80156104735780601f1061044857610100808354040283529160200191610473565b820191906000526020600020905b81548152906001019060200180831161045657829003601f168201915b505050505081526020016003820160009054906101000a900460ff1615151515815260200160048201548152602001600582015481526020016006820160009054906101000a900460ff1615151515815260200160078201548152505081526020019060010190610366565b505050509050919050565b600581815481106104fa57600080fd5b906000526020600020016000915090505481565b6006602052816000526040600020818154811061052a57600080fd5b9060005260206000209060080201600091509150508060000160009054906101000a900473ffffffffffffffffffffffffffffffffffffffff169080600101549080600201805461057a906118c4565b80601f01602080910402602001604051908101604052809291908181526020018280546105a6906118c4565b80156105f35780601f106105c8576101008083540402835291602001916105f3565b820191906000526020600020905b8154815290600101906020018083116105d657829003601f168201915b5050505050908060030160009054906101000a900460ff16908060040154908060050154908060060160009054906101000a900460ff16908060070154905088565b600160009054906101000a900473ffffffffffffffffffffffffffffffffffffffff1681565b60005481565b6003818154811061067157600080fd5b90600052602060002090600802016000915090508060000160009054906101000a900473ffffffffffffffffffffffffffffffffffffffff16908060010154908060020180546106c0906118c4565b80601f01602080910402602001604051908101604052809291908181526020018280546106ec906118c4565b80156107395780601f1061070e57610100808354040283529160200191610739565b820191906000526020600020905b81548152906001019060200180831161071c57829003601f168201915b5050505050908060030160009054906101000a900460ff16908060040154908060050154908060060160009054906101000a900460ff16908060070154905088565b606060028054806020026020016040519081016040528092919081815260200182805480156107ff57602002820191906000526020600020905b8160009054906101000a900473ffffffffffffffffffffffffffffffffffffffff1673ffffffffffffffffffffffffffffffffffffffff16815260200190600101908083116107b5575b5050505050905090565b610811610f86565b60008054905060006040518061010001604052803373ffffffffffffffffffffffffffffffffffffffff16815260200183815260200185858080601f016020809104026020016040519081016040528093929190818152602001838380828437600081840152601f19601f82011690508083019250505050505050815260200160001515815260200142815260200142815260200160001515815260200160008152509050600660003373ffffffffffffffffffffffffffffffffffffffff1673ffffffffffffffffffffffffffffffffffffffff16815260200190815260200160002081908060018154018082558091505060019003906000526020600020906008020160009091909190915060008201518160000160006101000a81548173ffffffffffffffffffffffffffffffffffffffff021916908373ffffffffffffffffffffffffffffffffffffffff16021790555060208201518160010155604082015181600201908051906020019061098c929190610f9f565b5060608201518160030160006101000a81548160ff0219169083151502179055506080820151816004015560a0820151816005015560c08201518160060160006101000a81548160ff02191690831515021790555060e0820151816007015550506002339080600181540180825580915050600190039060005260206000200160009091909190916101000a81548173ffffffffffffffffffffffffffffffffffffffff021916908373ffffffffffffffffffffffffffffffffffffffff1602179055506004848490918060018154018082558091505060019003906000526020600020016000909192909192909192909192509190610a8d929190611025565b50600582908060018154018082558091505060019003906000526020600020016000909190919091505550505050565b6000600660008673ffffffffffffffffffffffffffffffffffffffff1673ffffffffffffffffffffffffffffffffffffffff16815260200190815260200160002090508282828681548110610b1557610b146118f6565b5b90600052602060002090600802016002019190610b33929190611025565b505050505050565b6000600660008473ffffffffffffffffffffffffffffffffffffffff1673ffffffffffffffffffffffffffffffffffffffff168152602001908152602001600020905080805490508210610bc4576040517f08c379a0000000000000000000000000000000000000000000000000000000008152600401610bbb90611971565b60405180910390fd5b6001818381548110610bd957610bd86118f6565b5b906000526020600020906008020160060160006101000a81548160ff021916908315150217905550808281548110610c1457610c136118f6565b5b906000526020600020906008020160060160009054906101000a900460ff1615610c665742818381548110610c4c57610c4b6118f6565b5b906000526020600020906008020160070181905550610c91565b6000818381548110610c7b57610c7a6118f6565b5b9060005260206000209060080201600701819055505b505050565b60028181548110610ca657600080fd5b906000526020600020016000915054906101000a900473ffffffffffffffffffffffffffffffffffffffff1681565b60606004805480602002602001604051908101604052809291908181526020016000905b82821015610da5578382906000526020600020018054610d18906118c4565b80601f0160208091040260200160405190810160405280929190818152602001828054610d44906118c4565b8015610d915780601f10610d6657610100808354040283529160200191610d91565b820191906000526020600020905b815481529060010190602001808311610d7457829003601f168201915b505050505081526020019060010190610cf9565b50505050905090565b60048181548110610dbe57600080fd5b906000526020600020016000915090508054610dd9906118c4565b80601f0160208091040260200160405190810160405280929190818152602001828054610e05906118c4565b8015610e525780601f10610e2757610100808354040283529160200191610e52565b820191906000526020600020905b815481529060010190602001808311610e3557829003601f168201915b505050505081565b6000600660008473ffffffffffffffffffffffffffffffffffffffff1673ffffffffffffffffffffffffffffffffffffffff168152602001908152602001600020905080805490508210610ee3576040517f08c379a0000000000000000000000000000000000000000000000000000000008152600401610eda90611971565b60405180910390fd5b6001818381548110610ef857610ef76118f6565b5b906000526020600020906008020160030160006101000a81548160ff021916908315150217905550808281548110610f3357610f326118f6565b5b906000526020600020906008020160030160009054906101000a900460ff1615610f815742818381548110610f6b57610f6a6118f6565b5b9060005260206000209060080201600501819055505b505050565b600080815480929190610f98906119c0565b9190505550565b828054610fab906118c4565b90600052602060002090601f016020900481019282610fcd5760008555611014565b82601f10610fe657805160ff1916838001178555611014565b82800160010185558215611014579182015b82811115611013578251825591602001919060010190610ff8565b5b50905061102191906110ab565b5090565b828054611031906118c4565b90600052602060002090601f016020900481019282611053576000855561109a565b82601f1061106c57803560ff191683800117855561109a565b8280016001018555821561109a579182015b8281111561109957823582559160200191906001019061107e565b5b5090506110a791906110ab565b5090565b5b808211156110c45760008160009055506001016110ac565b5090565b600080fd5b600080fd5b600073ffffffffffffffffffffffffffffffffffffffff82169050919050565b60006110fd826110d2565b9050919050565b61110d816110f2565b811461111857600080fd5b50565b60008135905061112a81611104565b92915050565b600060208284031215611146576111456110c8565b5b60006111548482850161111b565b91505092915050565b600081519050919050565b600082825260208201905092915050565b6000819050602082019050919050565b611192816110f2565b82525050565b6000819050919050565b6111ab81611198565b82525050565b600081519050919050565b600082825260208201905092915050565b60005b838110156111eb5780820151818401526020810190506111d0565b838111156111fa576000848401525b50505050565b6000601f19601f8301169050919050565b600061121c826111b1565b61122681856111bc565b93506112368185602086016111cd565b61123f81611200565b840191505092915050565b60008115159050919050565b61125f8161124a565b82525050565b60006101008301600083015161127e6000860182611189565b50602083015161129160208601826111a2565b50604083015184820360408601526112a98282611211565b91505060608301516112be6060860182611256565b5060808301516112d160808601826111a2565b5060a08301516112e460a08601826111a2565b5060c08301516112f760c0860182611256565b5060e083015161130a60e08601826111a2565b508091505092915050565b60006113218383611265565b905092915050565b6000602082019050919050565b60006113418261115d565b61134b8185611168565b93508360208202850161135d85611179565b8060005b85811015611399578484038952815161137a8582611315565b945061138583611329565b925060208a01995050600181019050611361565b50829750879550505050505092915050565b600060208201905081810360008301526113c58184611336565b905092915050565b6113d681611198565b81146113e157600080fd5b50565b6000813590506113f3816113cd565b92915050565b60006020828403121561140f5761140e6110c8565b5b600061141d848285016113e4565b91505092915050565b61142f81611198565b82525050565b600060208201905061144a6000830184611426565b92915050565b60008060408385031215611467576114666110c8565b5b60006114758582860161111b565b9250506020611486858286016113e4565b9150509250929050565b611499816110f2565b82525050565b600082825260208201905092915050565b60006114bb826111b1565b6114c5818561149f565b93506114d58185602086016111cd565b6114de81611200565b840191505092915050565b6114f28161124a565b82525050565b60006101008201905061150e600083018b611490565b61151b602083018a611426565b818103604083015261152d81896114b0565b905061153c60608301886114e9565b6115496080830187611426565b61155660a0830186611426565b61156360c08301856114e9565b61157060e0830184611426565b9998505050505050505050565b60006020820190506115926000830184611490565b92915050565b600081519050919050565b600082825260208201905092915050565b6000819050602082019050919050565b60006115d08383611189565b60208301905092915050565b6000602082019050919050565b60006115f482611598565b6115fe81856115a3565b9350611609836115b4565b8060005b8381101561163a57815161162188826115c4565b975061162c836115dc565b92505060018101905061160d565b5085935050505092915050565b6000602082019050818103600083015261166181846115e9565b905092915050565b600080fd5b600080fd5b600080fd5b60008083601f84011261168e5761168d611669565b5b8235905067ffffffffffffffff8111156116ab576116aa61166e565b5b6020830191508360018202830111156116c7576116c6611673565b5b9250929050565b600080602083850312156116e5576116e46110c8565b5b600083013567ffffffffffffffff811115611703576117026110cd565b5b61170f85828601611678565b92509250509250929050565b60008060008060608587031215611735576117346110c8565b5b60006117438782880161111b565b9450506020611754878288016113e4565b935050604085013567ffffffffffffffff811115611775576117746110cd565b5b61178187828801611678565b925092505092959194509250565b600081519050919050565b600082825260208201905092915050565b6000819050602082019050919050565b60006117c78383611211565b905092915050565b6000602082019050919050565b60006117e78261178f565b6117f1818561179a565b935083602082028501611803856117ab565b8060005b8581101561183f578484038952815161182085826117bb565b945061182b836117cf565b925060208a01995050600181019050611807565b50829750879550505050505092915050565b6000602082019050818103600083015261186b81846117dc565b905092915050565b6000602082019050818103600083015261188d81846114b0565b905092915050565b7f4e487b7100000000000000000000000000000000000000000000000000000000600052602260045260246000fd5b600060028204905060018216806118dc57607f821691505b602082108114156118f0576118ef611895565b5b50919050565b7f4e487b7100000000000000000000000000000000000000000000000000000000600052603260045260246000fd5b7f496e76616c696420696e64657800000000000000000000000000000000000000600082015250565b600061195b600d8361149f565b915061196682611925565b602082019050919050565b6000602082019050818103600083015261198a8161194e565b9050919050565b7f4e487b7100000000000000000000000000000000000000000000000000000000600052601160045260246000fd5b60006119cb82611198565b91507fffffffffffffffffffffffffffffffffffffffffffffffffffffffffffffffff8214156119fe576119fd611991565b5b60018201905091905056fea2646970667358221220d3a95b891de4448f379b839793b5a6a890f8b18366fe855b012813a3935109c164736f6c63430008090033",
  "linkReferences": {},
  "deployedLinkReferences": {}
}