{
  "_format": "hh-sol-artifact-1",
  "contractName": "ToDoList",
  "sourceName": "contracts/ToDoList.sol",
  "abi": [
    {
      "inputs": [],
      "stateMutability": "nonpayable",
      "type": "constructor"
    },
    {
      "anonymous": false,
      "inputs": [
        {
          "indexed": true,
          "internalType": "address",
          "name": "account",
          "type": "address"
        },
        {
          "indexed": true,
          "internalType": "uint256",
          "name": "userId",
          "type": "uint256"
        },
        {
          "indexed": false,
          "internalType": "string",
          "name": "message",
          "type": "string"
        },
        {
          "indexed": false,
          "internalType": "bool",
          "name": "completed",
          "type": "bool"
        },
        {
          "indexed": false,
          "internalType": "uint256",
          "name": "timeStamp",
          "type": "uint256"
        }
      ],
      "name": "ToDoEvent",
      "type": "event"
    },
    {
      "inputs": [],
      "name": "_idUser",
      "outputs": [
        {
          "internalType": "uint256",
          "name": "",
          "type": "uint256"
        }
      ],
      "stateMutability": "view",
      "type": "function"
    },
    {
      "inputs": [
        {
          "internalType": "string",
          "name": "_message",
          "type": "string"
        }
      ],
      "name": "createList",
      "outputs": [],
      "stateMutability": "nonpayable",
      "type": "function"
    },
    {
      "inputs": [
        {
          "internalType": "uint256",
          "name": "",
          "type": "uint256"
        }
      ],
      "name": "creators",
      "outputs": [
        {
          "internalType": "address",
          "name": "",
          "type": "address"
        }
      ],
      "stateMutability": "view",
      "type": "function"
    },
    {
      "inputs": [],
      "name": "getAddresses",
      "outputs": [
        {
          "internalType": "address[]",
          "name": "",
          "type": "address[]"
        }
      ],
      "stateMutability": "view",
      "type": "function"
    },
    {
      "inputs": [
        {
          "internalType": "address",
          "name": "_address",
          "type": "address"
        }
      ],
      "name": "getCreatorData",
      "outputs": [
        {
          "internalType": "address",
          "name": "",
          "type": "address"
        },
        {
          "internalType": "uint256",
          "name": "",
          "type": "uint256"
        },
        {
          "internalType": "string",
          "name": "",
          "type": "string"
        },
        {
          "internalType": "bool",
          "name": "",
          "type": "bool"
        },
        {
          "internalType": "uint256",
          "name": "",
          "type": "uint256"
        }
      ],
      "stateMutability": "view",
      "type": "function"
    },
    {
      "inputs": [],
      "name": "getMessage",
      "outputs": [
        {
          "internalType": "string[]",
          "name": "",
          "type": "string[]"
        }
      ],
      "stateMutability": "view",
      "type": "function"
    },
    {
      "inputs": [
        {
          "internalType": "uint256",
          "name": "",
          "type": "uint256"
        }
      ],
      "name": "message",
      "outputs": [
        {
          "internalType": "string",
          "name": "",
          "type": "string"
        }
      ],
      "stateMutability": "view",
      "type": "function"
    },
    {
      "inputs": [
        {
          "internalType": "uint256",
          "name": "",
          "type": "uint256"
        }
      ],
      "name": "messageId",
      "outputs": [
        {
          "internalType": "uint256",
          "name": "",
          "type": "uint256"
        }
      ],
      "stateMutability": "view",
      "type": "function"
    },
    {
      "inputs": [],
      "name": "ownerOfContract",
      "outputs": [
        {
          "internalType": "address",
          "name": "",
          "type": "address"
        }
      ],
      "stateMutability": "view",
      "type": "function"
    },
    {
      "inputs": [
        {
          "internalType": "address",
          "name": "",
          "type": "address"
        }
      ],
      "name": "toDoListApps",
      "outputs": [
        {
          "internalType": "address",
          "name": "account",
          "type": "address"
        },
        {
          "internalType": "uint256",
          "name": "userId",
          "type": "uint256"
        },
        {
          "internalType": "string",
          "name": "message",
          "type": "string"
        },
        {
          "internalType": "bool",
          "name": "completed",
          "type": "bool"
        },
        {
          "internalType": "uint256",
          "name": "timeStamp",
          "type": "uint256"
        }
      ],
      "stateMutability": "view",
      "type": "function"
    },
    {
      "inputs": [
        {
          "internalType": "address",
          "name": "_creator",
          "type": "address"
        }
      ],
      "name": "toggle",
      "outputs": [],
      "stateMutability": "nonpayable",
      "type": "function"
    }
  ],
  "bytecode": "0x608060405234801561001057600080fd5b5033600160006101000a81548173ffffffffffffffffffffffffffffffffffffffff021916908373ffffffffffffffffffffffffffffffffffffffff160217905550611186806100616000396000f3fe608060405234801561001057600080fd5b50600436106100a95760003560e01c806394432cc51161007157806394432cc514610180578063a39fac121461019e578063b8dcc68f146101bc578063cd53d08e146101d8578063ce6d41de14610208578063d1e8507b14610226576100a9565b80630d64e697146100ae57806321e47d46146100e2578063468229ae14610112578063588f9acc1461013057806374310d081461014c575b600080fd5b6100c860048036038101906100c39190610b27565b610256565b6040516100d9959493929190610c30565b60405180910390f35b6100fc60048036038101906100f79190610cb6565b6103f0565b6040516101099190610ce3565b60405180910390f35b61011a610414565b6040516101279190610cfe565b60405180910390f35b61014a60048036038101906101459190610b27565b61043a565b005b61016660048036038101906101619190610b27565b6104af565b604051610177959493929190610c30565b60405180910390f35b61018861059a565b6040516101959190610ce3565b60405180910390f35b6101a66105a0565b6040516101b39190610dd7565b60405180910390f35b6101d660048036038101906101d19190610e5e565b61062e565b005b6101f260048036038101906101ed9190610cb6565b61083f565b6040516101ff9190610cfe565b60405180910390f35b61021061087e565b60405161021d9190610fb7565b60405180910390f35b610240600480360381019061023b9190610cb6565b610957565b60405161024d9190610fd9565b60405180910390f35b60008060606000806000600560008873ffffffffffffffffffffffffffffffffffffffff1673ffffffffffffffffffffffffffffffffffffffff1681526020019081526020016000206040518060a00160405290816000820160009054906101000a900473ffffffffffffffffffffffffffffffffffffffff1673ffffffffffffffffffffffffffffffffffffffff1673ffffffffffffffffffffffffffffffffffffffff1681526020016001820154815260200160028201805461031a9061102a565b80601f01602080910402602001604051908101604052809291908181526020018280546103469061102a565b80156103935780601f1061036857610100808354040283529160200191610393565b820191906000526020600020905b81548152906001019060200180831161037657829003601f168201915b505050505081526020016003820160009054906101000a900460ff16151515158152602001600482015481525050905080600001518160200151826040015183606001518460800151955095509550955095505091939590929450565b6004818154811061040057600080fd5b906000526020600020016000915090505481565b600160009054906101000a900473ffffffffffffffffffffffffffffffffffffffff1681565b6000600560008373ffffffffffffffffffffffffffffffffffffffff1673ffffffffffffffffffffffffffffffffffffffff16815260200190815260200160002090508060030160009054906101000a900460ff16158160030160006101000a81548160ff0219169083151502179055505050565b60056020528060005260406000206000915090508060000160009054906101000a900473ffffffffffffffffffffffffffffffffffffffff16908060010154908060020180546104fe9061102a565b80601f016020809104026020016040519081016040528092919081815260200182805461052a9061102a565b80156105775780601f1061054c57610100808354040283529160200191610577565b820191906000526020600020905b81548152906001019060200180831161055a57829003601f168201915b5050505050908060030160009054906101000a900460ff16908060040154905085565b60005481565b6060600280548060200260200160405190810160405280929190818152602001828054801561062457602002820191906000526020600020905b8160009054906101000a900473ffffffffffffffffffffffffffffffffffffffff1673ffffffffffffffffffffffffffffffffffffffff16815260200190600101908083116105da575b5050505050905090565b610636610a03565b6000805490506000600560003373ffffffffffffffffffffffffffffffffffffffff1673ffffffffffffffffffffffffffffffffffffffff1681526020019081526020016000209050338160000160006101000a81548173ffffffffffffffffffffffffffffffffffffffff021916908373ffffffffffffffffffffffffffffffffffffffff16021790555083838260020191906106d5929190610a1c565b5060008160030160006101000a81548160ff0219169083151502179055508181600101819055504281600401819055506002339080600181540180825580915050600190039060005260206000200160009091909190916101000a81548173ffffffffffffffffffffffffffffffffffffffff021916908373ffffffffffffffffffffffffffffffffffffffff16021790555060038484909180600181540180825580915050600190039060005260206000200160009091929091929091929091925091906107a5929190610a1c565b50600482908060018154018082558091505060019003906000526020600020016000909190919091505580600101543373ffffffffffffffffffffffffffffffffffffffff167f15ef267d47a5c4df73ef1891f9ac4acb454c429e3bd94f9bb753b132da164dfd86868560030160009054906101000a900460ff16426040516108319493929190611098565b60405180910390a350505050565b6002818154811061084f57600080fd5b906000526020600020016000915054906101000a900473ffffffffffffffffffffffffffffffffffffffff1681565b60606003805480602002602001604051908101604052809291908181526020016000905b8282101561094e5783829060005260206000200180546108c19061102a565b80601f01602080910402602001604051908101604052809291908181526020018280546108ed9061102a565b801561093a5780601f1061090f5761010080835404028352916020019161093a565b820191906000526020600020905b81548152906001019060200180831161091d57829003601f168201915b5050505050815260200190600101906108a2565b50505050905090565b6003818154811061096757600080fd5b9060005260206000200160009150905080546109829061102a565b80601f01602080910402602001604051908101604052809291908181526020018280546109ae9061102a565b80156109fb5780601f106109d0576101008083540402835291602001916109fb565b820191906000526020600020905b8154815290600101906020018083116109de57829003601f168201915b505050505081565b600080815480929190610a1590611107565b9190505550565b828054610a289061102a565b90600052602060002090601f016020900481019282610a4a5760008555610a91565b82601f10610a6357803560ff1916838001178555610a91565b82800160010185558215610a91579182015b82811115610a90578235825591602001919060010190610a75565b5b509050610a9e9190610aa2565b5090565b5b80821115610abb576000816000905550600101610aa3565b5090565b600080fd5b600080fd5b600073ffffffffffffffffffffffffffffffffffffffff82169050919050565b6000610af482610ac9565b9050919050565b610b0481610ae9565b8114610b0f57600080fd5b50565b600081359050610b2181610afb565b92915050565b600060208284031215610b3d57610b3c610abf565b5b6000610b4b84828501610b12565b91505092915050565b610b5d81610ae9565b82525050565b6000819050919050565b610b7681610b63565b82525050565b600081519050919050565b600082825260208201905092915050565b60005b83811015610bb6578082015181840152602081019050610b9b565b83811115610bc5576000848401525b50505050565b6000601f19601f8301169050919050565b6000610be782610b7c565b610bf18185610b87565b9350610c01818560208601610b98565b610c0a81610bcb565b840191505092915050565b60008115159050919050565b610c2a81610c15565b82525050565b600060a082019050610c456000830188610b54565b610c526020830187610b6d565b8181036040830152610c648186610bdc565b9050610c736060830185610c21565b610c806080830184610b6d565b9695505050505050565b610c9381610b63565b8114610c9e57600080fd5b50565b600081359050610cb081610c8a565b92915050565b600060208284031215610ccc57610ccb610abf565b5b6000610cda84828501610ca1565b91505092915050565b6000602082019050610cf86000830184610b6d565b92915050565b6000602082019050610d136000830184610b54565b92915050565b600081519050919050565b600082825260208201905092915050565b6000819050602082019050919050565b610d4e81610ae9565b82525050565b6000610d608383610d45565b60208301905092915050565b6000602082019050919050565b6000610d8482610d19565b610d8e8185610d24565b9350610d9983610d35565b8060005b83811015610dca578151610db18882610d54565b9750610dbc83610d6c565b925050600181019050610d9d565b5085935050505092915050565b60006020820190508181036000830152610df18184610d79565b905092915050565b600080fd5b600080fd5b600080fd5b60008083601f840112610e1e57610e1d610df9565b5b8235905067ffffffffffffffff811115610e3b57610e3a610dfe565b5b602083019150836001820283011115610e5757610e56610e03565b5b9250929050565b60008060208385031215610e7557610e74610abf565b5b600083013567ffffffffffffffff811115610e9357610e92610ac4565b5b610e9f85828601610e08565b92509250509250929050565b600081519050919050565b600082825260208201905092915050565b6000819050602082019050919050565b600082825260208201905092915050565b6000610ef382610b7c565b610efd8185610ed7565b9350610f0d818560208601610b98565b610f1681610bcb565b840191505092915050565b6000610f2d8383610ee8565b905092915050565b6000602082019050919050565b6000610f4d82610eab565b610f578185610eb6565b935083602082028501610f6985610ec7565b8060005b85811015610fa55784840389528151610f868582610f21565b9450610f9183610f35565b925060208a01995050600181019050610f6d565b50829750879550505050505092915050565b60006020820190508181036000830152610fd18184610f42565b905092915050565b60006020820190508181036000830152610ff38184610bdc565b905092915050565b7f4e487b7100000000000000000000000000000000000000000000000000000000600052602260045260246000fd5b6000600282049050600182168061104257607f821691505b6020821081141561105657611055610ffb565b5b50919050565b82818337600083830152505050565b60006110778385610b87565b935061108483858461105c565b61108d83610bcb565b840190509392505050565b600060608201905081810360008301526110b381868861106b565b90506110c26020830185610c21565b6110cf6040830184610b6d565b95945050505050565b7f4e487b7100000000000000000000000000000000000000000000000000000000600052601160045260246000fd5b600061111282610b63565b91507fffffffffffffffffffffffffffffffffffffffffffffffffffffffffffffffff821415611145576111446110d8565b5b60018201905091905056fea26469706673582212204ecd29e41df98818a2264707d0cabb95898daad9b61d1599222e89c4d84a2d8264736f6c63430008090033",
  "linkReferences": {},
  "deployedLinkReferences": {}
}